{
  "_format": "hh-sol-artifact-1",
  "contractName": "CreateWill",
  "sourceName": "contracts/Will.sol",
  "abi": [
    {
      "inputs": [],
      "stateMutability": "nonpayable",
      "type": "constructor"
    },
    {
      "anonymous": false,
      "inputs": [
        {
          "indexed": true,
          "internalType": "address",
          "name": "testator",
          "type": "address"
        }
      ],
      "name": "Ping",
      "type": "event"
    },
    {
      "anonymous": false,
      "inputs": [
        {
          "indexed": true,
          "internalType": "address",
          "name": "testator",
          "type": "address"
        }
      ],
      "name": "WillCancelled",
      "type": "event"
    },
    {
      "anonymous": false,
      "inputs": [
        {
          "indexed": true,
          "internalType": "address",
          "name": "testator",
          "type": "address"
        },
        {
          "indexed": false,
          "internalType": "address[]",
          "name": "beneficiaries",
          "type": "address[]"
        },
        {
          "indexed": false,
          "internalType": "uint256[]",
          "name": "amounts",
          "type": "uint256[]"
        },
        {
          "indexed": false,
          "internalType": "uint256",
          "name": "balance",
          "type": "uint256"
        },
        {
          "indexed": false,
          "internalType": "uint256",
          "name": "deathTimeout",
          "type": "uint256"
        }
      ],
      "name": "WillCreated",
      "type": "event"
    },
    {
      "anonymous": false,
      "inputs": [
        {
          "indexed": true,
          "internalType": "address",
          "name": "testator",
          "type": "address"
        }
      ],
      "name": "WillExecuted",
      "type": "event"
    },
    {
      "inputs": [],
      "name": "cancelWill",
      "outputs": [],
      "stateMutability": "nonpayable",
      "type": "function"
    },
    {
      "inputs": [
        {
          "internalType": "address[]",
          "name": "_beneficiaries",
          "type": "address[]"
        },
        {
          "internalType": "uint256[]",
          "name": "_amounts",
          "type": "uint256[]"
        },
        {
          "internalType": "uint256",
          "name": "_deathTimeout",
          "type": "uint256"
        }
      ],
      "name": "createWill",
      "outputs": [],
      "stateMutability": "payable",
      "type": "function"
    },
    {
      "inputs": [
        {
          "internalType": "address",
          "name": "_testator",
          "type": "address"
        }
      ],
      "name": "executeWill",
      "outputs": [],
      "stateMutability": "nonpayable",
      "type": "function"
    },
    {
      "inputs": [
        {
          "internalType": "address",
          "name": "_user",
          "type": "address"
        }
      ],
      "name": "getWill",
      "outputs": [
        {
          "components": [
            {
              "internalType": "address[]",
              "name": "beneficiaries",
              "type": "address[]"
            },
            {
              "internalType": "uint256[]",
              "name": "amounts",
              "type": "uint256[]"
            },
            {
              "internalType": "bool",
              "name": "executed",
              "type": "bool"
            },
            {
              "internalType": "uint256",
              "name": "lastPing",
              "type": "uint256"
            },
            {
              "internalType": "bool",
              "name": "cancelled",
              "type": "bool"
            },
            {
              "internalType": "uint256",
              "name": "balance",
              "type": "uint256"
            },
            {
              "internalType": "uint256",
              "name": "deathTimeout",
              "type": "uint256"
            }
          ],
          "internalType": "struct CreateWill.Will",
          "name": "",
          "type": "tuple"
        }
      ],
      "stateMutability": "view",
      "type": "function"
    },
    {
      "inputs": [],
      "name": "owner",
      "outputs": [
        {
          "internalType": "address",
          "name": "",
          "type": "address"
        }
      ],
      "stateMutability": "view",
      "type": "function"
    },
    {
      "inputs": [],
      "name": "ping",
      "outputs": [],
      "stateMutability": "nonpayable",
      "type": "function"
    },
    {
      "inputs": [
        {
          "internalType": "address",
          "name": "",
          "type": "address"
        }
      ],
      "name": "usersWill",
      "outputs": [
        {
          "internalType": "bool",
          "name": "executed",
          "type": "bool"
        },
        {
          "internalType": "uint256",
          "name": "lastPing",
          "type": "uint256"
        },
        {
          "internalType": "bool",
          "name": "cancelled",
          "type": "bool"
        },
        {
          "internalType": "uint256",
          "name": "balance",
          "type": "uint256"
        },
        {
          "internalType": "uint256",
          "name": "deathTimeout",
          "type": "uint256"
        }
      ],
      "stateMutability": "view",
      "type": "function"
    },
    {
      "stateMutability": "payable",
      "type": "receive"
    }
  ],
  "bytecode": "0x6080604052348015600f57600080fd5b50336000806101000a81548173ffffffffffffffffffffffffffffffffffffffff021916908373ffffffffffffffffffffffffffffffffffffffff160217905550611eb58061005f6000396000f3fe6080604052600436106100745760003560e01c8063c4f76d3c1161004e578063c4f76d3c146100ff578063d3f44e2d1461011b578063d558204e1461015c578063e854d135146101735761007b565b80635c36b186146100805780638da5cb5b14610097578063ac4e6b02146100c25761007b565b3661007b57005b600080fd5b34801561008c57600080fd5b5061009561019c565b005b3480156100a357600080fd5b506100ac6102b0565b6040516100b99190611011565b60405180910390f35b3480156100ce57600080fd5b506100e960048036038101906100e4919061106c565b6102d4565b6040516100f691906112dd565b60405180910390f35b61011960048036038101906101149190611547565b610467565b005b34801561012757600080fd5b50610142600480360381019061013d919061106c565b6108d7565b6040516101539594939291906115f0565b60405180910390f35b34801561016857600080fd5b50610171610927565b005b34801561017f57600080fd5b5061019a6004803603810190610195919061106c565b610bc4565b005b6000600160003373ffffffffffffffffffffffffffffffffffffffff1673ffffffffffffffffffffffffffffffffffffffff1681526020019081526020016000206000018054905011610224576040517f08c379a000000000000000000000000000000000000000000000000000000000815260040161021b906116a0565b60405180910390fd5b42600160003373ffffffffffffffffffffffffffffffffffffffff1673ffffffffffffffffffffffffffffffffffffffff168152602001908152602001600020600301819055503373ffffffffffffffffffffffffffffffffffffffff167ffee8775ba9b0f00b87db291c081d99de518bdebb6ccfa2482cc5882fe69307e560405160405180910390a2565b60008054906101000a900473ffffffffffffffffffffffffffffffffffffffff1681565b6102dc610e9b565b600160008373ffffffffffffffffffffffffffffffffffffffff1673ffffffffffffffffffffffffffffffffffffffff1681526020019081526020016000206040518060e0016040529081600082018054806020026020016040519081016040528092919081815260200182805480156103ab57602002820191906000526020600020905b8160009054906101000a900473ffffffffffffffffffffffffffffffffffffffff1673ffffffffffffffffffffffffffffffffffffffff1681526020019060010190808311610361575b505050505081526020016001820180548060200260200160405190810160405280929190818152602001828054801561040357602002820191906000526020600020905b8154815260200190600101908083116103ef575b505050505081526020016002820160009054906101000a900460ff16151515158152602001600382015481526020016004820160009054906101000a900460ff16151515158152602001600582015481526020016006820154815250509050919050565b6000600160003373ffffffffffffffffffffffffffffffffffffffff1673ffffffffffffffffffffffffffffffffffffffff16815260200190815260200160002060000180549050146104ef576040517f08c379a00000000000000000000000000000000000000000000000000000000081526004016104e69061170c565b60405180910390fd5b670de0b6b3a764000034101561053a576040517f08c379a00000000000000000000000000000000000000000000000000000000081526004016105319061179e565b60405180910390fd5b815183511461057e576040517f08c379a000000000000000000000000000000000000000000000000000000000815260040161057590611830565b60405180910390fd5b600083511180156105915750600a825111155b6105d0576040517f08c379a00000000000000000000000000000000000000000000000000000000081526004016105c79061189c565b60405180910390fd5b6000805b845181101561072657600073ffffffffffffffffffffffffffffffffffffffff16858281518110610608576106076118bc565b5b602002602001015173ffffffffffffffffffffffffffffffffffffffff1603610666576040517f08c379a000000000000000000000000000000000000000000000000000000000815260040161065d9061195d565b60405180910390fd5b600084828151811061067b5761067a6118bc565b5b60200260200101511180156106b2575068056bc75e2d631000008482815181106106a8576106a76118bc565b5b6020026020010151105b6106f1576040517f08c379a00000000000000000000000000000000000000000000000000000000081526004016106e8906119c9565b60405180910390fd5b838181518110610704576107036118bc565b5b6020026020010151826107179190611a18565b915080806001019150506105d4565b503481111561076a576040517f08c379a000000000000000000000000000000000000000000000000000000000815260040161076190611a98565b60405180910390fd5b6040518060e0016040528085815260200184815260200160001515815260200142815260200160001515815260200134815260200183815250600160003373ffffffffffffffffffffffffffffffffffffffff1673ffffffffffffffffffffffffffffffffffffffff16815260200190815260200160002060008201518160000190805190602001906107fe929190610edc565b50602082015181600101908051906020019061081b929190610f66565b5060408201518160020160006101000a81548160ff0219169083151502179055506060820151816003015560808201518160040160006101000a81548160ff02191690831515021790555060a0820151816005015560c082015181600601559050503373ffffffffffffffffffffffffffffffffffffffff167f536854a1d78e72863da584816bdd1cfe1a0ff45dafd3c4c03988c609e1dd38c4858534866040516108c99493929190611b96565b60405180910390a250505050565b60016020528060005260406000206000915090508060020160009054906101000a900460ff16908060030154908060040160009054906101000a900460ff16908060050154908060060154905085565b6000600160003373ffffffffffffffffffffffffffffffffffffffff1673ffffffffffffffffffffffffffffffffffffffff16815260200190815260200160002060000180549050116109af576040517f08c379a00000000000000000000000000000000000000000000000000000000081526004016109a6906116a0565b60405180910390fd5b6000600160003373ffffffffffffffffffffffffffffffffffffffff1673ffffffffffffffffffffffffffffffffffffffff16815260200190815260200160002090508060020160009054906101000a900460ff1615610a44576040517f08c379a0000000000000000000000000000000000000000000000000000000008152600401610a3b90611c35565b60405180910390fd5b8060040160009054906101000a900460ff1615610a96576040517f08c379a0000000000000000000000000000000000000000000000000000000008152600401610a8d90611ca1565b60405180910390fd5b60008160050154905060018260040160006101000a81548160ff021916908315150217905550600082600501819055506000811115610b7d5760003373ffffffffffffffffffffffffffffffffffffffff1682604051610af590611cf2565b60006040518083038185875af1925050503d8060008114610b32576040519150601f19603f3d011682016040523d82523d6000602084013e610b37565b606091505b5050905080610b7b576040517f08c379a0000000000000000000000000000000000000000000000000000000008152600401610b7290611d53565b60405180910390fd5b505b3373ffffffffffffffffffffffffffffffffffffffff167fc17d6b506af5eb977ab917816ea2471b340abd3d29485bbbb1eec1fc468f38a960405160405180910390a25050565b6000600160008373ffffffffffffffffffffffffffffffffffffffff1673ffffffffffffffffffffffffffffffffffffffff16815260200190815260200160002090508060060154816003015442610c1c9190611d73565b11610c5c576040517f08c379a0000000000000000000000000000000000000000000000000000000008152600401610c5390611df3565b60405180910390fd5b8060020160009054906101000a900460ff1615610cae576040517f08c379a0000000000000000000000000000000000000000000000000000000008152600401610ca590611c35565b60405180910390fd5b8060040160009054906101000a900460ff1615610d00576040517f08c379a0000000000000000000000000000000000000000000000000000000008152600401610cf790611ca1565b60405180910390fd5b60005b8160000180549050811015610e2c576000826000018281548110610d2a57610d296118bc565b5b9060005260206000200160009054906101000a900473ffffffffffffffffffffffffffffffffffffffff1673ffffffffffffffffffffffffffffffffffffffff16836001018381548110610d8157610d806118bc565b5b9060005260206000200154604051610d9890611cf2565b60006040518083038185875af1925050503d8060008114610dd5576040519150601f19603f3d011682016040523d82523d6000602084013e610dda565b606091505b5050905080610e1e576040517f08c379a0000000000000000000000000000000000000000000000000000000008152600401610e1590611e5f565b60405180910390fd5b508080600101915050610d03565b5060018160020160006101000a81548160ff021916908315150217905550600081600501819055508173ffffffffffffffffffffffffffffffffffffffff167f16346f65adf8d84422b57ad74cb5607bf6c9e55c3c1fea66344057e5bba8a7ee60405160405180910390a25050565b6040518060e0016040528060608152602001606081526020016000151581526020016000815260200160001515815260200160008152602001600081525090565b828054828255906000526020600020908101928215610f55579160200282015b82811115610f545782518260006101000a81548173ffffffffffffffffffffffffffffffffffffffff021916908373ffffffffffffffffffffffffffffffffffffffff16021790555091602001919060010190610efc565b5b509050610f629190610fb3565b5090565b828054828255906000526020600020908101928215610fa2579160200282015b82811115610fa1578251825591602001919060010190610f86565b5b509050610faf9190610fb3565b5090565b5b80821115610fcc576000816000905550600101610fb4565b5090565b600073ffffffffffffffffffffffffffffffffffffffff82169050919050565b6000610ffb82610fd0565b9050919050565b61100b81610ff0565b82525050565b60006020820190506110266000830184611002565b92915050565b6000604051905090565b600080fd5b600080fd5b61104981610ff0565b811461105457600080fd5b50565b60008135905061106681611040565b92915050565b60006020828403121561108257611081611036565b5b600061109084828501611057565b91505092915050565b600081519050919050565b600082825260208201905092915050565b6000819050602082019050919050565b6110ce81610ff0565b82525050565b60006110e083836110c5565b60208301905092915050565b6000602082019050919050565b600061110482611099565b61110e81856110a4565b9350611119836110b5565b8060005b8381101561114a57815161113188826110d4565b975061113c836110ec565b92505060018101905061111d565b5085935050505092915050565b600081519050919050565b600082825260208201905092915050565b6000819050602082019050919050565b6000819050919050565b61119681611183565b82525050565b60006111a8838361118d565b60208301905092915050565b6000602082019050919050565b60006111cc82611157565b6111d68185611162565b93506111e183611173565b8060005b838110156112125781516111f9888261119c565b9750611204836111b4565b9250506001810190506111e5565b5085935050505092915050565b60008115159050919050565b6112348161121f565b82525050565b600060e083016000830151848203600086015261125782826110f9565b9150506020830151848203602086015261127182826111c1565b9150506040830151611286604086018261122b565b506060830151611299606086018261118d565b5060808301516112ac608086018261122b565b5060a08301516112bf60a086018261118d565b5060c08301516112d260c086018261118d565b508091505092915050565b600060208201905081810360008301526112f7818461123a565b905092915050565b600080fd5b6000601f19601f8301169050919050565b7f4e487b7100000000000000000000000000000000000000000000000000000000600052604160045260246000fd5b61134d82611304565b810181811067ffffffffffffffff8211171561136c5761136b611315565b5b80604052505050565b600061137f61102c565b905061138b8282611344565b919050565b600067ffffffffffffffff8211156113ab576113aa611315565b5b602082029050602081019050919050565b600080fd5b60006113d46113cf84611390565b611375565b905080838252602082019050602084028301858111156113f7576113f66113bc565b5b835b81811015611420578061140c8882611057565b8452602084019350506020810190506113f9565b5050509392505050565b600082601f83011261143f5761143e6112ff565b5b813561144f8482602086016113c1565b91505092915050565b600067ffffffffffffffff82111561147357611472611315565b5b602082029050602081019050919050565b61148d81611183565b811461149857600080fd5b50565b6000813590506114aa81611484565b92915050565b60006114c36114be84611458565b611375565b905080838252602082019050602084028301858111156114e6576114e56113bc565b5b835b8181101561150f57806114fb888261149b565b8452602084019350506020810190506114e8565b5050509392505050565b600082601f83011261152e5761152d6112ff565b5b813561153e8482602086016114b0565b91505092915050565b6000806000606084860312156115605761155f611036565b5b600084013567ffffffffffffffff81111561157e5761157d61103b565b5b61158a8682870161142a565b935050602084013567ffffffffffffffff8111156115ab576115aa61103b565b5b6115b786828701611519565b92505060406115c88682870161149b565b9150509250925092565b6115db8161121f565b82525050565b6115ea81611183565b82525050565b600060a08201905061160560008301886115d2565b61161260208301876115e1565b61161f60408301866115d2565b61162c60608301856115e1565b61163960808301846115e1565b9695505050505050565b600082825260208201905092915050565b7f57696c6c206e6f7420666f756e64000000000000000000000000000000000000600082015250565b600061168a600e83611643565b915061169582611654565b602082019050919050565b600060208201905081810360008301526116b98161167d565b9050919050565b7f57696c6c20616c72656164792065786973747300000000000000000000000000600082015250565b60006116f6601383611643565b9150611701826116c0565b602082019050919050565b60006020820190508181036000830152611725816116e9565b9050919050565b7f4d696e696d756d206f66203120657468657220726571756972656420746f206360008201527f72656174652077696c6c00000000000000000000000000000000000000000000602082015250565b6000611788602a83611643565b91506117938261172c565b604082019050919050565b600060208201905081810360008301526117b78161177b565b9050919050565b7f4265626566696369617269657320616e6420616d6f756e74206d75737420626560008201527f206f66207468652073616d65206c656e67746800000000000000000000000000602082015250565b600061181a603383611643565b9150611825826117be565b604082019050919050565b600060208201905081810360008301526118498161180d565b9050919050565b7f3120746f2031302062656e6566696369617269657320616c6c6f776564000000600082015250565b6000611886601d83611643565b915061189182611850565b602082019050919050565b600060208201905081810360008301526118b581611879565b9050919050565b7f4e487b7100000000000000000000000000000000000000000000000000000000600052603260045260246000fd5b7f42656e65666963696172792061646472657373206d757374206265206120766160008201527f6c69642061646472657373000000000000000000000000000000000000000000602082015250565b6000611947602b83611643565b9150611952826118eb565b604082019050919050565b600060208201905081810360008301526119768161193a565b9050919050565b7f496e76616c6964206d6f756e7400000000000000000000000000000000000000600082015250565b60006119b3600d83611643565b91506119be8261197d565b602082019050919050565b600060208201905081810360008301526119e2816119a6565b9050919050565b7f4e487b7100000000000000000000000000000000000000000000000000000000600052601160045260246000fd5b6000611a2382611183565b9150611a2e83611183565b9250828201905080821115611a4657611a456119e9565b5b92915050565b7f496e73756666696369656e742065746865722073656e74000000000000000000600082015250565b6000611a82601783611643565b9150611a8d82611a4c565b602082019050919050565b60006020820190508181036000830152611ab181611a75565b9050919050565b600082825260208201905092915050565b6000611ad482611099565b611ade8185611ab8565b9350611ae9836110b5565b8060005b83811015611b1a578151611b0188826110d4565b9750611b0c836110ec565b925050600181019050611aed565b5085935050505092915050565b600082825260208201905092915050565b6000611b4382611157565b611b4d8185611b27565b9350611b5883611173565b8060005b83811015611b89578151611b70888261119c565b9750611b7b836111b4565b925050600181019050611b5c565b5085935050505092915050565b60006080820190508181036000830152611bb08187611ac9565b90508181036020830152611bc48186611b38565b9050611bd360408301856115e1565b611be060608301846115e1565b95945050505050565b7f57696c6c20616c72656164792065786563757465640000000000000000000000600082015250565b6000611c1f601583611643565b9150611c2a82611be9565b602082019050919050565b60006020820190508181036000830152611c4e81611c12565b9050919050565b7f57696c6c20616c72656164792063616e63656c6c656400000000000000000000600082015250565b6000611c8b601683611643565b9150611c9682611c55565b602082019050919050565b60006020820190508181036000830152611cba81611c7e565b9050919050565b600081905092915050565b50565b6000611cdc600083611cc1565b9150611ce782611ccc565b600082019050919050565b6000611cfd82611ccf565b9150819050919050565b7f524566756e64206661696c656400000000000000000000000000000000000000600082015250565b6000611d3d600d83611643565b9150611d4882611d07565b602082019050919050565b60006020820190508181036000830152611d6c81611d30565b9050919050565b6000611d7e82611183565b9150611d8983611183565b9250828203905081811115611da157611da06119e9565b5b92915050565b7f5465737461746f72207374696c6c20616c697665000000000000000000000000600082015250565b6000611ddd601483611643565b9150611de882611da7565b602082019050919050565b60006020820190508181036000830152611e0c81611dd0565b9050919050565b7f5472616e7366657220746f2062656e6566696369617279206661696c65640000600082015250565b6000611e49601e83611643565b9150611e5482611e13565b602082019050919050565b60006020820190508181036000830152611e7881611e3c565b905091905056fea26469706673582212204fa0c9e84c650cc95e081de899f114889a475c4dadd8b0a6b906099b17387d3e64736f6c634300081c0033",
  "linkReferences": {},
  "deployedLinkReferences": {}
}