{
  "_format": "hh-sol-artifact-1",
  "contractName": "CreateWill",
  "sourceName": "contracts/Will.sol",
  "abi": [
    {
      "inputs": [],
      "stateMutability": "nonpayable",
      "type": "constructor"
    },
    {
      "anonymous": false,
      "inputs": [
        {
          "indexed": true,
          "internalType": "address",
          "name": "testator",
          "type": "address"
        }
      ],
      "name": "Ping",
      "type": "event"
    },
    {
      "anonymous": false,
      "inputs": [
        {
          "indexed": true,
          "internalType": "address",
          "name": "testator",
          "type": "address"
        }
      ],
      "name": "WillCancelled",
      "type": "event"
    },
    {
      "anonymous": false,
      "inputs": [
        {
          "indexed": true,
          "internalType": "address",
          "name": "testator",
          "type": "address"
        },
        {
          "indexed": false,
          "internalType": "address[]",
          "name": "beneficiaries",
          "type": "address[]"
        },
        {
          "indexed": false,
          "internalType": "uint256[]",
          "name": "amounts",
          "type": "uint256[]"
        },
        {
          "indexed": false,
          "internalType": "uint256",
          "name": "balance",
          "type": "uint256"
        },
        {
          "indexed": false,
          "internalType": "uint256",
          "name": "deathTimeout",
          "type": "uint256"
        }
      ],
      "name": "WillCreated",
      "type": "event"
    },
    {
      "anonymous": false,
      "inputs": [
        {
          "indexed": true,
          "internalType": "address",
          "name": "testator",
          "type": "address"
        }
      ],
      "name": "WillExecuted",
      "type": "event"
    },
    {
      "inputs": [],
      "name": "cancelWill",
      "outputs": [],
      "stateMutability": "nonpayable",
      "type": "function"
    },
    {
      "inputs": [
        {
          "internalType": "address[]",
          "name": "_beneficiaries",
          "type": "address[]"
        },
        {
          "internalType": "uint256[]",
          "name": "_amounts",
          "type": "uint256[]"
        },
        {
          "internalType": "uint256",
          "name": "_deathTimeout",
          "type": "uint256"
        }
      ],
      "name": "createWill",
      "outputs": [],
      "stateMutability": "payable",
      "type": "function"
    },
    {
      "inputs": [
        {
          "internalType": "address",
          "name": "_testator",
          "type": "address"
        }
      ],
      "name": "executeWill",
      "outputs": [],
      "stateMutability": "nonpayable",
      "type": "function"
    },
    {
      "inputs": [],
      "name": "getAllTestators",
      "outputs": [
        {
          "internalType": "address[]",
          "name": "",
          "type": "address[]"
        }
      ],
      "stateMutability": "view",
      "type": "function"
    },
    {
      "inputs": [
        {
          "internalType": "address",
          "name": "_user",
          "type": "address"
        }
      ],
      "name": "getWill",
      "outputs": [
        {
          "components": [
            {
              "internalType": "address[]",
              "name": "beneficiaries",
              "type": "address[]"
            },
            {
              "internalType": "uint256[]",
              "name": "amounts",
              "type": "uint256[]"
            },
            {
              "internalType": "bool",
              "name": "executed",
              "type": "bool"
            },
            {
              "internalType": "uint256",
              "name": "lastPing",
              "type": "uint256"
            },
            {
              "internalType": "bool",
              "name": "cancelled",
              "type": "bool"
            },
            {
              "internalType": "uint256",
              "name": "balance",
              "type": "uint256"
            },
            {
              "internalType": "uint256",
              "name": "deathTimeout",
              "type": "uint256"
            }
          ],
          "internalType": "struct CreateWill.Will",
          "name": "",
          "type": "tuple"
        }
      ],
      "stateMutability": "view",
      "type": "function"
    },
    {
      "inputs": [],
      "name": "owner",
      "outputs": [
        {
          "internalType": "address",
          "name": "",
          "type": "address"
        }
      ],
      "stateMutability": "view",
      "type": "function"
    },
    {
      "inputs": [],
      "name": "ping",
      "outputs": [],
      "stateMutability": "nonpayable",
      "type": "function"
    },
    {
      "inputs": [
        {
          "internalType": "uint256",
          "name": "",
          "type": "uint256"
        }
      ],
      "name": "testators",
      "outputs": [
        {
          "internalType": "address",
          "name": "",
          "type": "address"
        }
      ],
      "stateMutability": "view",
      "type": "function"
    },
    {
      "inputs": [
        {
          "internalType": "address",
          "name": "",
          "type": "address"
        }
      ],
      "name": "usersWill",
      "outputs": [
        {
          "internalType": "bool",
          "name": "executed",
          "type": "bool"
        },
        {
          "internalType": "uint256",
          "name": "lastPing",
          "type": "uint256"
        },
        {
          "internalType": "bool",
          "name": "cancelled",
          "type": "bool"
        },
        {
          "internalType": "uint256",
          "name": "balance",
          "type": "uint256"
        },
        {
          "internalType": "uint256",
          "name": "deathTimeout",
          "type": "uint256"
        }
      ],
      "stateMutability": "view",
      "type": "function"
    },
    {
      "stateMutability": "payable",
      "type": "receive"
    }
  ],
  "bytecode": "0x6080604052348015600f57600080fd5b50336000806101000a81548173ffffffffffffffffffffffffffffffffffffffff021916908373ffffffffffffffffffffffffffffffffffffffff1602179055506123818061005f6000396000f3fe60806040526004361061008a5760003560e01c8063ac4e6b0211610059578063ac4e6b0214610140578063c4f76d3c1461017d578063d3f44e2d14610199578063d558204e146101da578063e854d135146101f157610091565b80635c36b1861461009657806368acbfa5146100ad57806383b4fd2a146100ea5780638da5cb5b1461011557610091565b3661009157005b600080fd5b3480156100a257600080fd5b506100ab61021a565b005b3480156100b957600080fd5b506100d460048036038101906100cf919061142b565b610416565b6040516100e19190611499565b60405180910390f35b3480156100f657600080fd5b506100ff610455565b60405161010c9190611572565b60405180910390f35b34801561012157600080fd5b5061012a6104e3565b6040516101379190611499565b60405180910390f35b34801561014c57600080fd5b50610167600480360381019061016291906115c0565b610507565b60405161017491906117d8565b60405180910390f35b61019760048036038101906101929190611a16565b61069a565b005b3480156101a557600080fd5b506101c060048036038101906101bb91906115c0565b610c66565b6040516101d1959493929190611abf565b60405180910390f35b3480156101e657600080fd5b506101ef610cb6565b005b3480156101fd57600080fd5b50610218600480360381019061021391906115c0565b610f73565b005b6000600160003373ffffffffffffffffffffffffffffffffffffffff1673ffffffffffffffffffffffffffffffffffffffff16815260200190815260200160002060000180549050116102a2576040517f08c379a000000000000000000000000000000000000000000000000000000000815260040161029990611b6f565b60405180910390fd5b600160003373ffffffffffffffffffffffffffffffffffffffff1673ffffffffffffffffffffffffffffffffffffffff16815260200190815260200160002060040160009054906101000a900460ff16158061034b5750600160003373ffffffffffffffffffffffffffffffffffffffff1673ffffffffffffffffffffffffffffffffffffffff16815260200190815260200160002060020160009054906101000a900460ff16155b61038a576040517f08c379a000000000000000000000000000000000000000000000000000000000815260040161038190611bdb565b60405180910390fd5b42600160003373ffffffffffffffffffffffffffffffffffffffff1673ffffffffffffffffffffffffffffffffffffffff168152602001908152602001600020600301819055503373ffffffffffffffffffffffffffffffffffffffff167ffee8775ba9b0f00b87db291c081d99de518bdebb6ccfa2482cc5882fe69307e560405160405180910390a2565b6002818154811061042657600080fd5b906000526020600020016000915054906101000a900473ffffffffffffffffffffffffffffffffffffffff1681565b606060028054806020026020016040519081016040528092919081815260200182805480156104d957602002820191906000526020600020905b8160009054906101000a900473ffffffffffffffffffffffffffffffffffffffff1673ffffffffffffffffffffffffffffffffffffffff168152602001906001019080831161048f575b5050505050905090565b60008054906101000a900473ffffffffffffffffffffffffffffffffffffffff1681565b61050f61126a565b600160008373ffffffffffffffffffffffffffffffffffffffff1673ffffffffffffffffffffffffffffffffffffffff1681526020019081526020016000206040518060e0016040529081600082018054806020026020016040519081016040528092919081815260200182805480156105de57602002820191906000526020600020905b8160009054906101000a900473ffffffffffffffffffffffffffffffffffffffff1673ffffffffffffffffffffffffffffffffffffffff1681526020019060010190808311610594575b505050505081526020016001820180548060200260200160405190810160405280929190818152602001828054801561063657602002820191906000526020600020905b815481526020019060010190808311610622575b505050505081526020016002820160009054906101000a900460ff16151515158152602001600382015481526020016004820160009054906101000a900460ff16151515158152602001600582015481526020016006820154815250509050919050565b6000600160003373ffffffffffffffffffffffffffffffffffffffff1673ffffffffffffffffffffffffffffffffffffffff16815260200190815260200160002060000180549050148061073a5750600160003373ffffffffffffffffffffffffffffffffffffffff1673ffffffffffffffffffffffffffffffffffffffff16815260200190815260200160002060040160009054906101000a900460ff165b806107915750600160003373ffffffffffffffffffffffffffffffffffffffff1673ffffffffffffffffffffffffffffffffffffffff16815260200190815260200160002060020160009054906101000a900460ff165b6107d0576040517f08c379a00000000000000000000000000000000000000000000000000000000081526004016107c790611c47565b60405180910390fd5b670de0b6b3a764000034101561081b576040517f08c379a000000000000000000000000000000000000000000000000000000000815260040161081290611cd9565b60405180910390fd5b815183511461085f576040517f08c379a000000000000000000000000000000000000000000000000000000000815260040161085690611d6b565b60405180910390fd5b600083511180156108725750600a825111155b6108b1576040517f08c379a00000000000000000000000000000000000000000000000000000000081526004016108a890611dd7565b60405180910390fd5b6000805b8451811015610a0757600073ffffffffffffffffffffffffffffffffffffffff168582815181106108e9576108e8611df7565b5b602002602001015173ffffffffffffffffffffffffffffffffffffffff1603610947576040517f08c379a000000000000000000000000000000000000000000000000000000000815260040161093e90611e98565b60405180910390fd5b600084828151811061095c5761095b611df7565b5b6020026020010151118015610993575068056bc75e2d6310000084828151811061098957610988611df7565b5b6020026020010151105b6109d2576040517f08c379a00000000000000000000000000000000000000000000000000000000081526004016109c990611f04565b60405180910390fd5b8381815181106109e5576109e4611df7565b5b6020026020010151826109f89190611f53565b915080806001019150506108b5565b5034811115610a4b576040517f08c379a0000000000000000000000000000000000000000000000000000000008152600401610a4290611fd3565b60405180910390fd5b6040518060e0016040528085815260200184815260200160001515815260200142815260200160001515815260200134815260200183815250600160003373ffffffffffffffffffffffffffffffffffffffff1673ffffffffffffffffffffffffffffffffffffffff1681526020019081526020016000206000820151816000019080519060200190610adf9291906112ab565b506020820151816001019080519060200190610afc929190611335565b5060408201518160020160006101000a81548160ff0219169083151502179055506060820151816003015560808201518160040160006101000a81548160ff02191690831515021790555060a0820151816005015560c082015181600601559050506000600160003373ffffffffffffffffffffffffffffffffffffffff1673ffffffffffffffffffffffffffffffffffffffff1681526020019081526020016000206005015403610c0c576002339080600181540180825580915050600190039060005260206000200160009091909190916101000a81548173ffffffffffffffffffffffffffffffffffffffff021916908373ffffffffffffffffffffffffffffffffffffffff1602179055505b3373ffffffffffffffffffffffffffffffffffffffff167f536854a1d78e72863da584816bdd1cfe1a0ff45dafd3c4c03988c609e1dd38c485853486604051610c589493929190612062565b60405180910390a250505050565b60016020528060005260406000206000915090508060020160009054906101000a900460ff16908060030154908060040160009054906101000a900460ff16908060050154908060060154905085565b6000600160003373ffffffffffffffffffffffffffffffffffffffff1673ffffffffffffffffffffffffffffffffffffffff1681526020019081526020016000206000018054905011610d3e576040517f08c379a0000000000000000000000000000000000000000000000000000000008152600401610d3590611b6f565b60405180910390fd5b6000600160003373ffffffffffffffffffffffffffffffffffffffff1673ffffffffffffffffffffffffffffffffffffffff16815260200190815260200160002090508060020160009054906101000a900460ff1615610dd3576040517f08c379a0000000000000000000000000000000000000000000000000000000008152600401610dca90612101565b60405180910390fd5b8060040160009054906101000a900460ff1615610e25576040517f08c379a0000000000000000000000000000000000000000000000000000000008152600401610e1c9061216d565b60405180910390fd5b60008160050154905060018260040160006101000a81548160ff021916908315150217905550816000016000610e5b9190611382565b816001016000610e6b91906113a3565b600082600501819055506000811115610f2c5760003373ffffffffffffffffffffffffffffffffffffffff1682604051610ea4906121be565b60006040518083038185875af1925050503d8060008114610ee1576040519150601f19603f3d011682016040523d82523d6000602084013e610ee6565b606091505b5050905080610f2a576040517f08c379a0000000000000000000000000000000000000000000000000000000008152600401610f219061221f565b60405180910390fd5b505b3373ffffffffffffffffffffffffffffffffffffffff167fc17d6b506af5eb977ab917816ea2471b340abd3d29485bbbb1eec1fc468f38a960405160405180910390a25050565b6000600160008373ffffffffffffffffffffffffffffffffffffffff1673ffffffffffffffffffffffffffffffffffffffff16815260200190815260200160002090508060060154816003015442610fcb919061223f565b1161100b576040517f08c379a0000000000000000000000000000000000000000000000000000000008152600401611002906122bf565b60405180910390fd5b8060020160009054906101000a900460ff161561105d576040517f08c379a000000000000000000000000000000000000000000000000000000000815260040161105490612101565b60405180910390fd5b8060040160009054906101000a900460ff16156110af576040517f08c379a00000000000000000000000000000000000000000000000000000000081526004016110a69061216d565b60405180910390fd5b60005b81600001805490508110156111db5760008260000182815481106110d9576110d8611df7565b5b9060005260206000200160009054906101000a900473ffffffffffffffffffffffffffffffffffffffff1673ffffffffffffffffffffffffffffffffffffffff168360010183815481106111305761112f611df7565b5b9060005260206000200154604051611147906121be565b60006040518083038185875af1925050503d8060008114611184576040519150601f19603f3d011682016040523d82523d6000602084013e611189565b606091505b50509050806111cd576040517f08c379a00000000000000000000000000000000000000000000000000000000081526004016111c49061232b565b60405180910390fd5b5080806001019150506110b2565b5060018160020160006101000a81548160ff021916908315150217905550600081600501819055508060000160006112139190611382565b80600101600061122391906113a3565b8173ffffffffffffffffffffffffffffffffffffffff167f16346f65adf8d84422b57ad74cb5607bf6c9e55c3c1fea66344057e5bba8a7ee60405160405180910390a25050565b6040518060e0016040528060608152602001606081526020016000151581526020016000815260200160001515815260200160008152602001600081525090565b828054828255906000526020600020908101928215611324579160200282015b828111156113235782518260006101000a81548173ffffffffffffffffffffffffffffffffffffffff021916908373ffffffffffffffffffffffffffffffffffffffff160217905550916020019190600101906112cb565b5b50905061133191906113c4565b5090565b828054828255906000526020600020908101928215611371579160200282015b82811115611370578251825591602001919060010190611355565b5b50905061137e91906113c4565b5090565b50805460008255906000526020600020908101906113a091906113c4565b50565b50805460008255906000526020600020908101906113c191906113c4565b50565b5b808211156113dd5760008160009055506001016113c5565b5090565b6000604051905090565b600080fd5b600080fd5b6000819050919050565b611408816113f5565b811461141357600080fd5b50565b600081359050611425816113ff565b92915050565b600060208284031215611441576114406113eb565b5b600061144f84828501611416565b91505092915050565b600073ffffffffffffffffffffffffffffffffffffffff82169050919050565b600061148382611458565b9050919050565b61149381611478565b82525050565b60006020820190506114ae600083018461148a565b92915050565b600081519050919050565b600082825260208201905092915050565b6000819050602082019050919050565b6114e981611478565b82525050565b60006114fb83836114e0565b60208301905092915050565b6000602082019050919050565b600061151f826114b4565b61152981856114bf565b9350611534836114d0565b8060005b8381101561156557815161154c88826114ef565b975061155783611507565b925050600181019050611538565b5085935050505092915050565b6000602082019050818103600083015261158c8184611514565b905092915050565b61159d81611478565b81146115a857600080fd5b50565b6000813590506115ba81611594565b92915050565b6000602082840312156115d6576115d56113eb565b5b60006115e4848285016115ab565b91505092915050565b600082825260208201905092915050565b6000611609826114b4565b61161381856115ed565b935061161e836114d0565b8060005b8381101561164f57815161163688826114ef565b975061164183611507565b925050600181019050611622565b5085935050505092915050565b600081519050919050565b600082825260208201905092915050565b6000819050602082019050919050565b611691816113f5565b82525050565b60006116a38383611688565b60208301905092915050565b6000602082019050919050565b60006116c78261165c565b6116d18185611667565b93506116dc83611678565b8060005b8381101561170d5781516116f48882611697565b97506116ff836116af565b9250506001810190506116e0565b5085935050505092915050565b60008115159050919050565b61172f8161171a565b82525050565b600060e083016000830151848203600086015261175282826115fe565b9150506020830151848203602086015261176c82826116bc565b91505060408301516117816040860182611726565b5060608301516117946060860182611688565b5060808301516117a76080860182611726565b5060a08301516117ba60a0860182611688565b5060c08301516117cd60c0860182611688565b508091505092915050565b600060208201905081810360008301526117f28184611735565b905092915050565b600080fd5b6000601f19601f8301169050919050565b7f4e487b7100000000000000000000000000000000000000000000000000000000600052604160045260246000fd5b611848826117ff565b810181811067ffffffffffffffff8211171561186757611866611810565b5b80604052505050565b600061187a6113e1565b9050611886828261183f565b919050565b600067ffffffffffffffff8211156118a6576118a5611810565b5b602082029050602081019050919050565b600080fd5b60006118cf6118ca8461188b565b611870565b905080838252602082019050602084028301858111156118f2576118f16118b7565b5b835b8181101561191b578061190788826115ab565b8452602084019350506020810190506118f4565b5050509392505050565b600082601f83011261193a576119396117fa565b5b813561194a8482602086016118bc565b91505092915050565b600067ffffffffffffffff82111561196e5761196d611810565b5b602082029050602081019050919050565b600061199261198d84611953565b611870565b905080838252602082019050602084028301858111156119b5576119b46118b7565b5b835b818110156119de57806119ca8882611416565b8452602084019350506020810190506119b7565b5050509392505050565b600082601f8301126119fd576119fc6117fa565b5b8135611a0d84826020860161197f565b91505092915050565b600080600060608486031215611a2f57611a2e6113eb565b5b600084013567ffffffffffffffff811115611a4d57611a4c6113f0565b5b611a5986828701611925565b935050602084013567ffffffffffffffff811115611a7a57611a796113f0565b5b611a86868287016119e8565b9250506040611a9786828701611416565b9150509250925092565b611aaa8161171a565b82525050565b611ab9816113f5565b82525050565b600060a082019050611ad46000830188611aa1565b611ae16020830187611ab0565b611aee6040830186611aa1565b611afb6060830185611ab0565b611b086080830184611ab0565b9695505050505050565b600082825260208201905092915050565b7f57696c6c206e6f7420666f756e64000000000000000000000000000000000000600082015250565b6000611b59600e83611b12565b9150611b6482611b23565b602082019050919050565b60006020820190508181036000830152611b8881611b4c565b9050919050565b7f57696c6c20646f6e277420657869737400000000000000000000000000000000600082015250565b6000611bc5601083611b12565b9150611bd082611b8f565b602082019050919050565b60006020820190508181036000830152611bf481611bb8565b9050919050565b7f57696c6c20616c72656164792065786973747300000000000000000000000000600082015250565b6000611c31601383611b12565b9150611c3c82611bfb565b602082019050919050565b60006020820190508181036000830152611c6081611c24565b9050919050565b7f4d696e696d756d206f66203120657468657220726571756972656420746f206360008201527f72656174652077696c6c00000000000000000000000000000000000000000000602082015250565b6000611cc3602a83611b12565b9150611cce82611c67565b604082019050919050565b60006020820190508181036000830152611cf281611cb6565b9050919050565b7f4265626566696369617269657320616e6420616d6f756e74206d75737420626560008201527f206f66207468652073616d65206c656e67746800000000000000000000000000602082015250565b6000611d55603383611b12565b9150611d6082611cf9565b604082019050919050565b60006020820190508181036000830152611d8481611d48565b9050919050565b7f3120746f2031302062656e6566696369617269657320616c6c6f776564000000600082015250565b6000611dc1601d83611b12565b9150611dcc82611d8b565b602082019050919050565b60006020820190508181036000830152611df081611db4565b9050919050565b7f4e487b7100000000000000000000000000000000000000000000000000000000600052603260045260246000fd5b7f42656e65666963696172792061646472657373206d757374206265206120766160008201527f6c69642061646472657373000000000000000000000000000000000000000000602082015250565b6000611e82602b83611b12565b9150611e8d82611e26565b604082019050919050565b60006020820190508181036000830152611eb181611e75565b9050919050565b7f496e76616c6964206d6f756e7400000000000000000000000000000000000000600082015250565b6000611eee600d83611b12565b9150611ef982611eb8565b602082019050919050565b60006020820190508181036000830152611f1d81611ee1565b9050919050565b7f4e487b7100000000000000000000000000000000000000000000000000000000600052601160045260246000fd5b6000611f5e826113f5565b9150611f69836113f5565b9250828201905080821115611f8157611f80611f24565b5b92915050565b7f496e73756666696369656e742065746865722073656e74000000000000000000600082015250565b6000611fbd601783611b12565b9150611fc882611f87565b602082019050919050565b60006020820190508181036000830152611fec81611fb0565b9050919050565b600082825260208201905092915050565b600061200f8261165c565b6120198185611ff3565b935061202483611678565b8060005b8381101561205557815161203c8882611697565b9750612047836116af565b925050600181019050612028565b5085935050505092915050565b6000608082019050818103600083015261207c8187611514565b905081810360208301526120908186612004565b905061209f6040830185611ab0565b6120ac6060830184611ab0565b95945050505050565b7f57696c6c20616c72656164792065786563757465640000000000000000000000600082015250565b60006120eb601583611b12565b91506120f6826120b5565b602082019050919050565b6000602082019050818103600083015261211a816120de565b9050919050565b7f57696c6c20616c72656164792063616e63656c6c656400000000000000000000600082015250565b6000612157601683611b12565b915061216282612121565b602082019050919050565b600060208201905081810360008301526121868161214a565b9050919050565b600081905092915050565b50565b60006121a860008361218d565b91506121b382612198565b600082019050919050565b60006121c98261219b565b9150819050919050565b7f524566756e64206661696c656400000000000000000000000000000000000000600082015250565b6000612209600d83611b12565b9150612214826121d3565b602082019050919050565b60006020820190508181036000830152612238816121fc565b9050919050565b600061224a826113f5565b9150612255836113f5565b925082820390508181111561226d5761226c611f24565b5b92915050565b7f5465737461746f72207374696c6c20616c697665000000000000000000000000600082015250565b60006122a9601483611b12565b91506122b482612273565b602082019050919050565b600060208201905081810360008301526122d88161229c565b9050919050565b7f5472616e7366657220746f2062656e6566696369617279206661696c65640000600082015250565b6000612315601e83611b12565b9150612320826122df565b602082019050919050565b6000602082019050818103600083015261234481612308565b905091905056fea264697066735822122023aa4477810624c2913d9bf6d63130547e2304c203c93155a972cc1ceb3efb2d64736f6c634300081c0033",
  "linkReferences": {},
  "deployedLinkReferences": {}
}