{
  "_format": "hh-sol-artifact-1",
  "contractName": "CreateWill",
  "sourceName": "contracts/Will.sol",
  "abi": [
    {
      "inputs": [],
      "stateMutability": "nonpayable",
      "type": "constructor"
    },
    {
      "anonymous": false,
      "inputs": [
        {
          "indexed": true,
          "internalType": "address",
          "name": "testator",
          "type": "address"
        }
      ],
      "name": "Ping",
      "type": "event"
    },
    {
      "anonymous": false,
      "inputs": [
        {
          "indexed": true,
          "internalType": "address",
          "name": "testator",
          "type": "address"
        }
      ],
      "name": "WillCancelled",
      "type": "event"
    },
    {
      "anonymous": false,
      "inputs": [
        {
          "indexed": true,
          "internalType": "address",
          "name": "testator",
          "type": "address"
        },
        {
          "indexed": false,
          "internalType": "address[]",
          "name": "beneficiaries",
          "type": "address[]"
        },
        {
          "indexed": false,
          "internalType": "uint256[]",
          "name": "amounts",
          "type": "uint256[]"
        },
        {
          "indexed": false,
          "internalType": "uint256",
          "name": "balance",
          "type": "uint256"
        },
        {
          "indexed": false,
          "internalType": "uint256",
          "name": "deathTimeout",
          "type": "uint256"
        }
      ],
      "name": "WillCreated",
      "type": "event"
    },
    {
      "anonymous": false,
      "inputs": [
        {
          "indexed": true,
          "internalType": "address",
          "name": "testator",
          "type": "address"
        }
      ],
      "name": "WillExecuted",
      "type": "event"
    },
    {
      "inputs": [],
      "name": "cancelWill",
      "outputs": [],
      "stateMutability": "nonpayable",
      "type": "function"
    },
    {
      "inputs": [
        {
          "internalType": "address[]",
          "name": "_beneficiaries",
          "type": "address[]"
        },
        {
          "internalType": "uint256[]",
          "name": "_amounts",
          "type": "uint256[]"
        },
        {
          "internalType": "uint256",
          "name": "_deathTimeout",
          "type": "uint256"
        }
      ],
      "name": "createWill",
      "outputs": [],
      "stateMutability": "payable",
      "type": "function"
    },
    {
      "inputs": [
        {
          "internalType": "address",
          "name": "_testator",
          "type": "address"
        }
      ],
      "name": "executeWill",
      "outputs": [],
      "stateMutability": "nonpayable",
      "type": "function"
    },
    {
      "inputs": [],
      "name": "getAllTestators",
      "outputs": [
        {
          "internalType": "address[]",
          "name": "",
          "type": "address[]"
        }
      ],
      "stateMutability": "view",
      "type": "function"
    },
    {
      "inputs": [
        {
          "internalType": "address",
          "name": "_user",
          "type": "address"
        }
      ],
      "name": "getWill",
      "outputs": [
        {
          "components": [
            {
              "internalType": "address[]",
              "name": "beneficiaries",
              "type": "address[]"
            },
            {
              "internalType": "uint256[]",
              "name": "amounts",
              "type": "uint256[]"
            },
            {
              "internalType": "bool",
              "name": "executed",
              "type": "bool"
            },
            {
              "internalType": "uint256",
              "name": "lastPing",
              "type": "uint256"
            },
            {
              "internalType": "bool",
              "name": "cancelled",
              "type": "bool"
            },
            {
              "internalType": "uint256",
              "name": "balance",
              "type": "uint256"
            },
            {
              "internalType": "uint256",
              "name": "deathTimeout",
              "type": "uint256"
            }
          ],
          "internalType": "struct CreateWill.Will",
          "name": "",
          "type": "tuple"
        }
      ],
      "stateMutability": "view",
      "type": "function"
    },
    {
      "inputs": [],
      "name": "owner",
      "outputs": [
        {
          "internalType": "address",
          "name": "",
          "type": "address"
        }
      ],
      "stateMutability": "view",
      "type": "function"
    },
    {
      "inputs": [],
      "name": "ping",
      "outputs": [],
      "stateMutability": "nonpayable",
      "type": "function"
    },
    {
      "inputs": [
        {
          "internalType": "uint256",
          "name": "",
          "type": "uint256"
        }
      ],
      "name": "testators",
      "outputs": [
        {
          "internalType": "address",
          "name": "",
          "type": "address"
        }
      ],
      "stateMutability": "view",
      "type": "function"
    },
    {
      "inputs": [
        {
          "internalType": "address",
          "name": "",
          "type": "address"
        }
      ],
      "name": "usersWill",
      "outputs": [
        {
          "internalType": "bool",
          "name": "executed",
          "type": "bool"
        },
        {
          "internalType": "uint256",
          "name": "lastPing",
          "type": "uint256"
        },
        {
          "internalType": "bool",
          "name": "cancelled",
          "type": "bool"
        },
        {
          "internalType": "uint256",
          "name": "balance",
          "type": "uint256"
        },
        {
          "internalType": "uint256",
          "name": "deathTimeout",
          "type": "uint256"
        }
      ],
      "stateMutability": "view",
      "type": "function"
    },
    {
      "stateMutability": "payable",
      "type": "receive"
    }
  ],
  "bytecode": "0x6080604052348015600f57600080fd5b50336000806101000a81548173ffffffffffffffffffffffffffffffffffffffff021916908373ffffffffffffffffffffffffffffffffffffffff1602179055506123c88061005f6000396000f3fe60806040526004361061008a5760003560e01c8063ac4e6b0211610059578063ac4e6b0214610140578063c4f76d3c1461017d578063d3f44e2d14610199578063d558204e146101da578063e854d135146101f157610091565b80635c36b1861461009657806368acbfa5146100ad57806383b4fd2a146100ea5780638da5cb5b1461011557610091565b3661009157005b600080fd5b3480156100a257600080fd5b506100ab61021a565b005b3480156100b957600080fd5b506100d460048036038101906100cf9190611472565b610416565b6040516100e191906114e0565b60405180910390f35b3480156100f657600080fd5b506100ff610455565b60405161010c91906115b9565b60405180910390f35b34801561012157600080fd5b5061012a6104e3565b60405161013791906114e0565b60405180910390f35b34801561014c57600080fd5b5061016760048036038101906101629190611607565b610507565b604051610174919061181f565b60405180910390f35b61019760048036038101906101929190611a5d565b61069a565b005b3480156101a557600080fd5b506101c060048036038101906101bb9190611607565b610c66565b6040516101d1959493929190611b06565b60405180910390f35b3480156101e657600080fd5b506101ef610cb6565b005b3480156101fd57600080fd5b5061021860048036038101906102139190611607565b610f73565b005b6000600160003373ffffffffffffffffffffffffffffffffffffffff1673ffffffffffffffffffffffffffffffffffffffff16815260200190815260200160002060000180549050116102a2576040517f08c379a000000000000000000000000000000000000000000000000000000000815260040161029990611bb6565b60405180910390fd5b600160003373ffffffffffffffffffffffffffffffffffffffff1673ffffffffffffffffffffffffffffffffffffffff16815260200190815260200160002060040160009054906101000a900460ff16158061034b5750600160003373ffffffffffffffffffffffffffffffffffffffff1673ffffffffffffffffffffffffffffffffffffffff16815260200190815260200160002060020160009054906101000a900460ff16155b61038a576040517f08c379a000000000000000000000000000000000000000000000000000000000815260040161038190611c22565b60405180910390fd5b42600160003373ffffffffffffffffffffffffffffffffffffffff1673ffffffffffffffffffffffffffffffffffffffff168152602001908152602001600020600301819055503373ffffffffffffffffffffffffffffffffffffffff167ffee8775ba9b0f00b87db291c081d99de518bdebb6ccfa2482cc5882fe69307e560405160405180910390a2565b6002818154811061042657600080fd5b906000526020600020016000915054906101000a900473ffffffffffffffffffffffffffffffffffffffff1681565b606060028054806020026020016040519081016040528092919081815260200182805480156104d957602002820191906000526020600020905b8160009054906101000a900473ffffffffffffffffffffffffffffffffffffffff1673ffffffffffffffffffffffffffffffffffffffff168152602001906001019080831161048f575b5050505050905090565b60008054906101000a900473ffffffffffffffffffffffffffffffffffffffff1681565b61050f6112b1565b600160008373ffffffffffffffffffffffffffffffffffffffff1673ffffffffffffffffffffffffffffffffffffffff1681526020019081526020016000206040518060e0016040529081600082018054806020026020016040519081016040528092919081815260200182805480156105de57602002820191906000526020600020905b8160009054906101000a900473ffffffffffffffffffffffffffffffffffffffff1673ffffffffffffffffffffffffffffffffffffffff1681526020019060010190808311610594575b505050505081526020016001820180548060200260200160405190810160405280929190818152602001828054801561063657602002820191906000526020600020905b815481526020019060010190808311610622575b505050505081526020016002820160009054906101000a900460ff16151515158152602001600382015481526020016004820160009054906101000a900460ff16151515158152602001600582015481526020016006820154815250509050919050565b6000600160003373ffffffffffffffffffffffffffffffffffffffff1673ffffffffffffffffffffffffffffffffffffffff16815260200190815260200160002060000180549050148061073a5750600160003373ffffffffffffffffffffffffffffffffffffffff1673ffffffffffffffffffffffffffffffffffffffff16815260200190815260200160002060040160009054906101000a900460ff165b806107915750600160003373ffffffffffffffffffffffffffffffffffffffff1673ffffffffffffffffffffffffffffffffffffffff16815260200190815260200160002060020160009054906101000a900460ff165b6107d0576040517f08c379a00000000000000000000000000000000000000000000000000000000081526004016107c790611c8e565b60405180910390fd5b670de0b6b3a764000034101561081b576040517f08c379a000000000000000000000000000000000000000000000000000000000815260040161081290611d20565b60405180910390fd5b815183511461085f576040517f08c379a000000000000000000000000000000000000000000000000000000000815260040161085690611db2565b60405180910390fd5b600083511180156108725750600a825111155b6108b1576040517f08c379a00000000000000000000000000000000000000000000000000000000081526004016108a890611e1e565b60405180910390fd5b6000805b8451811015610a0757600073ffffffffffffffffffffffffffffffffffffffff168582815181106108e9576108e8611e3e565b5b602002602001015173ffffffffffffffffffffffffffffffffffffffff1603610947576040517f08c379a000000000000000000000000000000000000000000000000000000000815260040161093e90611edf565b60405180910390fd5b600084828151811061095c5761095b611e3e565b5b6020026020010151118015610993575068056bc75e2d6310000084828151811061098957610988611e3e565b5b6020026020010151105b6109d2576040517f08c379a00000000000000000000000000000000000000000000000000000000081526004016109c990611f4b565b60405180910390fd5b8381815181106109e5576109e4611e3e565b5b6020026020010151826109f89190611f9a565b915080806001019150506108b5565b5034811115610a4b576040517f08c379a0000000000000000000000000000000000000000000000000000000008152600401610a429061201a565b60405180910390fd5b6000600160003373ffffffffffffffffffffffffffffffffffffffff1673ffffffffffffffffffffffffffffffffffffffff1681526020019081526020016000206005015403610af9576002339080600181540180825580915050600190039060005260206000200160009091909190916101000a81548173ffffffffffffffffffffffffffffffffffffffff021916908373ffffffffffffffffffffffffffffffffffffffff1602179055505b6040518060e0016040528085815260200184815260200160001515815260200142815260200160001515815260200134815260200183815250600160003373ffffffffffffffffffffffffffffffffffffffff1673ffffffffffffffffffffffffffffffffffffffff1681526020019081526020016000206000820151816000019080519060200190610b8d9291906112f2565b506020820151816001019080519060200190610baa92919061137c565b5060408201518160020160006101000a81548160ff0219169083151502179055506060820151816003015560808201518160040160006101000a81548160ff02191690831515021790555060a0820151816005015560c082015181600601559050503373ffffffffffffffffffffffffffffffffffffffff167f536854a1d78e72863da584816bdd1cfe1a0ff45dafd3c4c03988c609e1dd38c485853486604051610c5894939291906120a9565b60405180910390a250505050565b60016020528060005260406000206000915090508060020160009054906101000a900460ff16908060030154908060040160009054906101000a900460ff16908060050154908060060154905085565b6000600160003373ffffffffffffffffffffffffffffffffffffffff1673ffffffffffffffffffffffffffffffffffffffff1681526020019081526020016000206000018054905011610d3e576040517f08c379a0000000000000000000000000000000000000000000000000000000008152600401610d3590611bb6565b60405180910390fd5b6000600160003373ffffffffffffffffffffffffffffffffffffffff1673ffffffffffffffffffffffffffffffffffffffff16815260200190815260200160002090508060020160009054906101000a900460ff1615610dd3576040517f08c379a0000000000000000000000000000000000000000000000000000000008152600401610dca90612148565b60405180910390fd5b8060040160009054906101000a900460ff1615610e25576040517f08c379a0000000000000000000000000000000000000000000000000000000008152600401610e1c906121b4565b60405180910390fd5b60008160050154905060018260040160006101000a81548160ff021916908315150217905550816000016000610e5b91906113c9565b816001016000610e6b91906113ea565b600082600501819055506000811115610f2c5760003373ffffffffffffffffffffffffffffffffffffffff1682604051610ea490612205565b60006040518083038185875af1925050503d8060008114610ee1576040519150601f19603f3d011682016040523d82523d6000602084013e610ee6565b606091505b5050905080610f2a576040517f08c379a0000000000000000000000000000000000000000000000000000000008152600401610f2190612266565b60405180910390fd5b505b3373ffffffffffffffffffffffffffffffffffffffff167fc17d6b506af5eb977ab917816ea2471b340abd3d29485bbbb1eec1fc468f38a960405160405180910390a25050565b6000600160008373ffffffffffffffffffffffffffffffffffffffff1673ffffffffffffffffffffffffffffffffffffffff16815260200190815260200160002090508060060154816003015442610fcb9190612286565b1161100b576040517f08c379a000000000000000000000000000000000000000000000000000000000815260040161100290612306565b60405180910390fd5b8060020160009054906101000a900460ff161561105d576040517f08c379a000000000000000000000000000000000000000000000000000000000815260040161105490612148565b60405180910390fd5b8060040160009054906101000a900460ff16156110af576040517f08c379a00000000000000000000000000000000000000000000000000000000081526004016110a6906121b4565b60405180910390fd5b60008160050154036110f6576040517f08c379a00000000000000000000000000000000000000000000000000000000081526004016110ed90611c22565b60405180910390fd5b60005b81600001805490508110156112225760008260000182815481106111205761111f611e3e565b5b9060005260206000200160009054906101000a900473ffffffffffffffffffffffffffffffffffffffff1673ffffffffffffffffffffffffffffffffffffffff1683600101838154811061117757611176611e3e565b5b906000526020600020015460405161118e90612205565b60006040518083038185875af1925050503d80600081146111cb576040519150601f19603f3d011682016040523d82523d6000602084013e6111d0565b606091505b5050905080611214576040517f08c379a000000000000000000000000000000000000000000000000000000000815260040161120b90612372565b60405180910390fd5b5080806001019150506110f9565b5060018160020160006101000a81548160ff0219169083151502179055506000816005018190555080600001600061125a91906113c9565b80600101600061126a91906113ea565b8173ffffffffffffffffffffffffffffffffffffffff167f16346f65adf8d84422b57ad74cb5607bf6c9e55c3c1fea66344057e5bba8a7ee60405160405180910390a25050565b6040518060e0016040528060608152602001606081526020016000151581526020016000815260200160001515815260200160008152602001600081525090565b82805482825590600052602060002090810192821561136b579160200282015b8281111561136a5782518260006101000a81548173ffffffffffffffffffffffffffffffffffffffff021916908373ffffffffffffffffffffffffffffffffffffffff16021790555091602001919060010190611312565b5b509050611378919061140b565b5090565b8280548282559060005260206000209081019282156113b8579160200282015b828111156113b757825182559160200191906001019061139c565b5b5090506113c5919061140b565b5090565b50805460008255906000526020600020908101906113e7919061140b565b50565b5080546000825590600052602060002090810190611408919061140b565b50565b5b8082111561142457600081600090555060010161140c565b5090565b6000604051905090565b600080fd5b600080fd5b6000819050919050565b61144f8161143c565b811461145a57600080fd5b50565b60008135905061146c81611446565b92915050565b60006020828403121561148857611487611432565b5b60006114968482850161145d565b91505092915050565b600073ffffffffffffffffffffffffffffffffffffffff82169050919050565b60006114ca8261149f565b9050919050565b6114da816114bf565b82525050565b60006020820190506114f560008301846114d1565b92915050565b600081519050919050565b600082825260208201905092915050565b6000819050602082019050919050565b611530816114bf565b82525050565b60006115428383611527565b60208301905092915050565b6000602082019050919050565b6000611566826114fb565b6115708185611506565b935061157b83611517565b8060005b838110156115ac5781516115938882611536565b975061159e8361154e565b92505060018101905061157f565b5085935050505092915050565b600060208201905081810360008301526115d3818461155b565b905092915050565b6115e4816114bf565b81146115ef57600080fd5b50565b600081359050611601816115db565b92915050565b60006020828403121561161d5761161c611432565b5b600061162b848285016115f2565b91505092915050565b600082825260208201905092915050565b6000611650826114fb565b61165a8185611634565b935061166583611517565b8060005b8381101561169657815161167d8882611536565b97506116888361154e565b925050600181019050611669565b5085935050505092915050565b600081519050919050565b600082825260208201905092915050565b6000819050602082019050919050565b6116d88161143c565b82525050565b60006116ea83836116cf565b60208301905092915050565b6000602082019050919050565b600061170e826116a3565b61171881856116ae565b9350611723836116bf565b8060005b8381101561175457815161173b88826116de565b9750611746836116f6565b925050600181019050611727565b5085935050505092915050565b60008115159050919050565b61177681611761565b82525050565b600060e08301600083015184820360008601526117998282611645565b915050602083015184820360208601526117b38282611703565b91505060408301516117c8604086018261176d565b5060608301516117db60608601826116cf565b5060808301516117ee608086018261176d565b5060a083015161180160a08601826116cf565b5060c083015161181460c08601826116cf565b508091505092915050565b60006020820190508181036000830152611839818461177c565b905092915050565b600080fd5b6000601f19601f8301169050919050565b7f4e487b7100000000000000000000000000000000000000000000000000000000600052604160045260246000fd5b61188f82611846565b810181811067ffffffffffffffff821117156118ae576118ad611857565b5b80604052505050565b60006118c1611428565b90506118cd8282611886565b919050565b600067ffffffffffffffff8211156118ed576118ec611857565b5b602082029050602081019050919050565b600080fd5b6000611916611911846118d2565b6118b7565b90508083825260208201905060208402830185811115611939576119386118fe565b5b835b81811015611962578061194e88826115f2565b84526020840193505060208101905061193b565b5050509392505050565b600082601f83011261198157611980611841565b5b8135611991848260208601611903565b91505092915050565b600067ffffffffffffffff8211156119b5576119b4611857565b5b602082029050602081019050919050565b60006119d96119d48461199a565b6118b7565b905080838252602082019050602084028301858111156119fc576119fb6118fe565b5b835b81811015611a255780611a11888261145d565b8452602084019350506020810190506119fe565b5050509392505050565b600082601f830112611a4457611a43611841565b5b8135611a548482602086016119c6565b91505092915050565b600080600060608486031215611a7657611a75611432565b5b600084013567ffffffffffffffff811115611a9457611a93611437565b5b611aa08682870161196c565b935050602084013567ffffffffffffffff811115611ac157611ac0611437565b5b611acd86828701611a2f565b9250506040611ade8682870161145d565b9150509250925092565b611af181611761565b82525050565b611b008161143c565b82525050565b600060a082019050611b1b6000830188611ae8565b611b286020830187611af7565b611b356040830186611ae8565b611b426060830185611af7565b611b4f6080830184611af7565b9695505050505050565b600082825260208201905092915050565b7f57696c6c206e6f7420666f756e64000000000000000000000000000000000000600082015250565b6000611ba0600e83611b59565b9150611bab82611b6a565b602082019050919050565b60006020820190508181036000830152611bcf81611b93565b9050919050565b7f57696c6c20646f6e277420657869737400000000000000000000000000000000600082015250565b6000611c0c601083611b59565b9150611c1782611bd6565b602082019050919050565b60006020820190508181036000830152611c3b81611bff565b9050919050565b7f57696c6c20616c72656164792065786973747300000000000000000000000000600082015250565b6000611c78601383611b59565b9150611c8382611c42565b602082019050919050565b60006020820190508181036000830152611ca781611c6b565b9050919050565b7f4d696e696d756d206f66203120657468657220726571756972656420746f206360008201527f72656174652077696c6c00000000000000000000000000000000000000000000602082015250565b6000611d0a602a83611b59565b9150611d1582611cae565b604082019050919050565b60006020820190508181036000830152611d3981611cfd565b9050919050565b7f4265626566696369617269657320616e6420616d6f756e74206d75737420626560008201527f206f66207468652073616d65206c656e67746800000000000000000000000000602082015250565b6000611d9c603383611b59565b9150611da782611d40565b604082019050919050565b60006020820190508181036000830152611dcb81611d8f565b9050919050565b7f3120746f2031302062656e6566696369617269657320616c6c6f776564000000600082015250565b6000611e08601d83611b59565b9150611e1382611dd2565b602082019050919050565b60006020820190508181036000830152611e3781611dfb565b9050919050565b7f4e487b7100000000000000000000000000000000000000000000000000000000600052603260045260246000fd5b7f42656e65666963696172792061646472657373206d757374206265206120766160008201527f6c69642061646472657373000000000000000000000000000000000000000000602082015250565b6000611ec9602b83611b59565b9150611ed482611e6d565b604082019050919050565b60006020820190508181036000830152611ef881611ebc565b9050919050565b7f496e76616c6964206d6f756e7400000000000000000000000000000000000000600082015250565b6000611f35600d83611b59565b9150611f4082611eff565b602082019050919050565b60006020820190508181036000830152611f6481611f28565b9050919050565b7f4e487b7100000000000000000000000000000000000000000000000000000000600052601160045260246000fd5b6000611fa58261143c565b9150611fb08361143c565b9250828201905080821115611fc857611fc7611f6b565b5b92915050565b7f496e73756666696369656e742065746865722073656e74000000000000000000600082015250565b6000612004601783611b59565b915061200f82611fce565b602082019050919050565b6000602082019050818103600083015261203381611ff7565b9050919050565b600082825260208201905092915050565b6000612056826116a3565b612060818561203a565b935061206b836116bf565b8060005b8381101561209c57815161208388826116de565b975061208e836116f6565b92505060018101905061206f565b5085935050505092915050565b600060808201905081810360008301526120c3818761155b565b905081810360208301526120d7818661204b565b90506120e66040830185611af7565b6120f36060830184611af7565b95945050505050565b7f57696c6c20616c72656164792065786563757465640000000000000000000000600082015250565b6000612132601583611b59565b915061213d826120fc565b602082019050919050565b6000602082019050818103600083015261216181612125565b9050919050565b7f57696c6c20616c72656164792063616e63656c6c656400000000000000000000600082015250565b600061219e601683611b59565b91506121a982612168565b602082019050919050565b600060208201905081810360008301526121cd81612191565b9050919050565b600081905092915050565b50565b60006121ef6000836121d4565b91506121fa826121df565b600082019050919050565b6000612210826121e2565b9150819050919050565b7f524566756e64206661696c656400000000000000000000000000000000000000600082015250565b6000612250600d83611b59565b915061225b8261221a565b602082019050919050565b6000602082019050818103600083015261227f81612243565b9050919050565b60006122918261143c565b915061229c8361143c565b92508282039050818111156122b4576122b3611f6b565b5b92915050565b7f5465737461746f72207374696c6c20616c697665000000000000000000000000600082015250565b60006122f0601483611b59565b91506122fb826122ba565b602082019050919050565b6000602082019050818103600083015261231f816122e3565b9050919050565b7f5472616e7366657220746f2062656e6566696369617279206661696c65640000600082015250565b600061235c601e83611b59565b915061236782612326565b602082019050919050565b6000602082019050818103600083015261238b8161234f565b905091905056fea2646970667358221220fc3aae2a46be261a1ef13cfc717f46eb2027f3d909171a599c14f900095ea0c464736f6c634300081c0033",
  "linkReferences": {},
  "deployedLinkReferences": {}
}